:02000000803E40
:020003002112C8
:05001300C28B31023236
:10004000758DFD7590FF75892175A895D288D28A26
:10005000786075984011627E00790020B5FD7D01C1
:1000600080F9C2B6C2B775A0387F01D2B711E4C219
:10007000B77F0111E475A0387F01D2B711E4C2B790
:100080007F0111E475A0387F01D2B711E4C2B77FB8
:100090000111E475A0017F11D2B711E4C2B77F014D
:1000A00011E475A00F7F01D2B711E4C2B77F01112F
:1000B000E475A0807F01D2B711E4C2B77F0111E4DB
:1000C00022BE100411D67E00D2B6F5A0D2B77F01B1
:1000D00011E4C2B70E22C2B675A0C0D2B77F01111B
:1000E000E4C2B722758CFC758A18D28C308DFDC2A3
:1000F0008DDFF122D28ED2B587993099FDC2990950
:1001000080027960E9B500EC22E590540F9322F665
:100110000822C289BD010C7583027582203109C491
:10012000FC0D32BD021175830275822031094CFC31
:100130007D0011C1310F32758302758200310911C2
:04014000C1310F3288
:10020000444243413035383245363933463437314C
:100220000D0B0C0A000508020E0609030F04070156
:00000001FF
