:02000000803E40
:0100030032CA
:01000B0032C2
:0100130032BA
:01001B0032B2
:0100230032AA
:1000400075891175A895115A7448119474301194DA
:10005000744C11947441119480FEC29475A0017F78
:1000600010D29511B7C29575A0387F01D29511B7FE
:10007000C29575A0387F01D29511B7C29575A00FB2
:100080007F01D29511B7C29575A0807F01D29511DD
:10009000B7C29522BE100411A97E00D294F5A0D259
:1000A000957F0111B7C2950E22C29475A0C0D2955A
:1000B0007F0111B7C29522758CFF758A9CD28C3056
:0900C0008DFDC28DDFF12280FEEE
:00000001FF
