:02000000803E40
:09000300C28911C4119111D0321F
:0100130032BA
:0100230032AA
:1000400075891175A895D288D28A786087991155DB
:1000500020B5FD80FBC2B6C2B775A0017F11D2B733
:1000600011B4C2B775A0387F01D2B711B4C2B77549
:10007000A0387F01D2B711B4C2B775A00F7F01D2EB
:10008000B711B4C2B775A0807F01D2B711B4C2B79F
:1000900022BE100411A67E00D2B6F5A0D2B77F0111
:1000A00011B4C2B70E22C2B675A0C0D2B77F01117B
:1000B000B4C2B722758CFF758A9CD28C308DFDC27C
:1000C0008DDFF122E590540F758302758200932233
:0300D000F608220D
:10020000444243413035383245363933463437314C
:00000001FF
