:02000000803E40
:0100030032CA
:01000B0032C2
:0100130032BA
:01001B0032B2
:0100230032AA
:1000400075891175A895115A7448119674301196D6
:10005000744C11967441119680FEC2B6C2B775A059
:10006000017F11D2B711B9C2B775A0387F01D2B7DD
:1000700011B9C2B775A0387F01D2B711B9C2B7752F
:10008000A00F7F01D2B711B9C2B775A0807F01D28E
:10009000B711B9C2B722BE100411AB7E00D2B6F5BB
:1000A000A0D2B77F0111B9C2B70E22C2B675A0C0E7
:1000B000D2B77F0111B9C2B722758CFF758A9CD265
:0B00C0008C308DFDC28DDFF12280FE30
:00000001FF
