:02000000803E40
:09000300C28911BD118A11C93234
:0100130032BA
:0100230032AA
:1000400075891175A895D2887860114E80FEC2B668
:10005000C2B775A0017F11D2B711ADC2B775A03874
:100060007F01D2B711ADC2B775A0387F01D2B711E9
:10007000ADC2B775A00F7F01D2B711ADC2B775A0E1
:10008000807F01D2B711ADC2B722BE1004119F7E8E
:1000900000D2B6F5A0D2B77F0111ADC2B70E22C211
:1000A000B675A0C0D2B77F0111ADC2B722758CFF63
:1000B000758A9CD28C308DFDC28DDFF122E5905483
:0C00C0000F7583027582009322F608225F
:10020000444243413035383245363933463437314C
:00000001FF
