:02000000803E40
:09000300C28911C2118F11CE3225
:0100130032BA
:0100230032AA
:1000400075891175A895D288D28A7860115320B528
:10005000FD80FBC2B6C2B775A0017F11D2B711B245
:10006000C2B775A0387F01D2B711B2C2B775A03838
:100070007F01D2B711B2C2B775A00F7F01D2B711FD
:10008000B2C2B775A0807F01D2B711B2C2B722BE8B
:10009000100411A47E00D2B6F5A0D2B77F0111B230
:1000A000C2B70E22C2B675A0C0D2B77F0111B2C2CC
:1000B000B722758CFF758A9CD28C308DFDC28DDF86
:1000C000F122E590540F7583027582009322F608A1
:0100D000220D
:10020000444243413035383245363933463437314C
:00000001FF
